{
  "poolAddress": "0x4e68Ccd3E89f51C3074ca5072bbAC773960dFa36",
  "blockNumber": 18500100,
  "victimTransaction": {
    "hash": "0xabcdef1234567890abcdef1234567890abcdef1234567890abcdef1234567890",
    "rawTx": "0x02f86d0182f618843b9aca0085012a05f200825208944e68ccd3e89f51c3074ca5072bbac773960dfa36872386f26fc10000880de0b6b3a764000080c080a0abcdef1234567890abcdef1234567890abcdef1234567890abcdef1234567890a0abcdef1234567890abcdef1234567890abcdef1234567890abcdef1234567890",
    "data": "0x414bf389000000000000000000000000dac17f958d2ee523a2206206994597c13d831ec7000000000000000000000000c02aaa39b223fe8d0a0e5c4f27ead9083c756cc20000000000000000000000000000000000000000000000000000000000000bb8000000000000000000000000fedcbafedcbafedcbafedcbafedcbafedcbafedcba00000000000000000000000000000000000000000000000000000000648e7180000000000000000000000000000000000000000000000021e19e0c9bab24000000000000000000000000000000000000000000000000021a494c589c00000000000000000000000000000000000000000000000000000000000000000000",
    "from": "0x742d35Cc6634C0532925a3b8D86BF0c1f8c43e9e",
    "to": "0xE592427A0AEce92De3Edee1F18E0157C05861564",
    "value": "0",
    "gasPrice": "22000000000",
    "gasLimit": "180000",
    "nonce": 156
  },
  "swapParams": {
    "tokenIn": "0xdAC17F958D2ee523a2206206994597C13D831ec7",
    "tokenOut": "0xC02aaA39b223FE8D0A0e5C4F27eAD9083C756Cc2",
    "amountIn": "10000000000000000000",
    "amountOutMinimum": "9900000000000000000",
    "fee": 3000
  },
  "expectedResults": {
    "profitable": true,
    "estimatedNetProfitUSD": 82.25
  },
  "metadata": {
    "generatedAt": "2024-09-14T00:00:00.000Z",
    "chain": "ethereum",
    "description": "USDT/WETH 0.3% - Stable volume pool test fixture"
  }
}