{
  "poolAddress": "0x8ad599c3A0ff1De082011EFDDc58f1908eb6e6D8",
  "blockNumber": 18500000,
  "victimTransaction": {
    "hash": "0x1234567890abcdef1234567890abcdef1234567890abcdef1234567890abcdef",
    "rawTx": "0x02f86d0182f618843b9aca0085012a05f200825208948ad599c3a0ff1de082011efddc58f1908eb6e6d8872386f26fc10000880de0b6b3a764000080c080a01234567890abcdef1234567890abcdef1234567890abcdef1234567890abcdefa01234567890abcdef1234567890abcdef1234567890abcdef1234567890abcdef",
    "data": "0x414bf389000000000000000000000000a0b86a33e6427ff2b5b8b9a5e5d17b5c4c6f6b7c000000000000000000000000c02aaa39b223fe8d0a0e5c4f27ead9083c756cc20000000000000000000000000000000000000000000000000000000000000bb8000000000000000000000000abcdefabcdefabcdefabcdefabcdefabcdefabcd00000000000000000000000000000000000000000000000000000000648e7180000000000000000000000000000000000000000000000021e19e0c9bab2400000000000000000000000000000000000000000000000000021a494c589c00000000000000000000000000000000000000000000000000000000000000000000",
    "from": "0xAbcdEfAbcdEfAbcdEfAbcdEfAbcdEfAbcdEfAbcdEf",
    "to": "0xE592427A0AEce92De3Edee1F18E0157C05861564",
    "value": "0",
    "gasPrice": "20000000000",
    "gasLimit": "200000",
    "nonce": 42
  },
  "swapParams": {
    "tokenIn": "0xA0b86a33E6427fF2B5B8b9a5e5D17b5c4c6f6b7c",
    "tokenOut": "0xC02aaA39b223FE8D0A0e5C4F27eAD9083C756Cc2",
    "amountIn": "10000000000000000000",
    "amountOutMinimum": "9950000000000000000",
    "fee": 3000
  },
  "expectedResults": {
    "profitable": true,
    "estimatedNetProfitUSD": 75.50
  },
  "metadata": {
    "generatedAt": "2024-09-14T00:00:00.000Z",
    "chain": "ethereum",
    "description": "USDC/WETH 0.3% - High volume pool test fixture"
  }
}